:100000000C943F000C9467000C9467000C946700FC
:100010000C9467000C9467000C9467000C946700C4
:100020000C9467000C9467000C9467000C946700B4
:100030000C9467000C9467000C9467000C946700A4
:100040000C9467000C9467000C9467000C94670094
:100050000C9467000C9467000C9467000C94670084
:100060000C9467000C9467000C9467000C94670074
:100070000C9467000C9467000C946700160211241E
:100080001FBECFEFD8E0DEBFCDBF11E0A0E0B1E0F2
:10009000E8E7F9E002C005900D92A430B107D9F766
:1000A00021E0A4E0B1E001C01D92AC30B207E1F75D
:1000B00010E0CFE3D0E004C02197FE010E94B40419
:1000C000CE33D107C9F70E946E000C94BA040C9489
:1000D000000084B1836084B9299A089500D000D0CB
:1000E00000D0CDB7DEB70E94690082E3E82EF12C84
:1000F00090EDC92E97E0D92E1D821E828D819E81A2
:10010000092E000CAA0BBB0B89839A83AB83BC839B
:10011000BC01CD010E946F03162F072F782E692E88
:10012000209108013091090140910A0150910B0181
:1001300069837A838B839C8369817A818B819C819B
:100140000E94C00218160CF46EC18D819E81B70109
:100150000E948C044B011E821D824FC0289A2FE7FB
:1001600038E381E0215030408040E1F700C00000DA
:10017000AD81BE81A815B9058CF3B12CA12CC501A8
:100180000B2C000CAA0BBB0B89839A83AB83BC831B
:10019000BC01CD010E946F031B012C01212F302FC8
:1001A000472D562D609108017091090180910A0137
:1001B00090910B010E94530220E030E048E452E4A9
:1001C00069837A838B839C8369817A818B819C810B
:1001D0000E94C5029B01AC0129823A824B825C825B
:1001E00069817A818B819C810E94C00287FD3FC01A
:1001F000AD81BE811196BE83AD8320910201309105
:1002000003012C9DC0012D9D900D3C9D900D11244E
:100210002D813E81281739070CF4AACF20E030E069
:1002200040E85EE3609108017091090180910A0144
:1002300090910B010E941F04212F302F472D562D26
:1002400069837A838B839C8369817A818B819C818A
:100250000E94540269837A838B839C8369817A81AB
:100260008B819C810E9437036D837E8347CF85B14C
:1002700095B18095892385B9BFE728E331E0B15076
:1002800020403040E1F700C000008FEFA81AB80A04
:1002900076CF289A9FE7A8E3B1E09150A040B04004
:1002A000E1F700C000002D813E81281539058CF34F
:1002B000B12CA12CC5010B2C000CAA0BBB0B898304
:1002C0009A83AB83BC83BC01CD010E946F031B01E9
:1002D0002C01212F302F472D562D60910401709154
:1002E000050180910601909107010E94530220E0D0
:1002F00030E048E452E469837A838B839C8369818C
:100300007A818B819C810E94C5029B01AC0129826C
:100310003A824B825C8269817A818B819C810E94C6
:10032000C00287FD6EC0AD81BE811196BE83AD83D4
:1003300020910001309101012C9DC0012D9D900D57
:100340003C9D900D11242D813E81281739070CF416
:10035000AACF20E030E040E85EE3609104017091B4
:10036000050180910601909107010E941F04212F31
:10037000302F472D562D69837A838B839C83698127
:100380007A818B819C810E94540269837A838B835A
:100390009C8369817A818B819C810E9437036D8364
:1003A0007E838D819E81092E000CAA0BBB0B898355
:1003B0009A83AB83BC83BC01CD010E946F03162FCF
:1003C000072F782E692E209104013091050140916C
:1003D00006015091070169837A838B839C8369812D
:1003E0007A818B819C810E94C00218160CF484CE05
:1003F0008D819E81B7010E948C044B011E821D825B
:1004000097CF85B195B18095892385B93FE788E37A
:1004100091E0315080409040E1F700C00000AFEF24
:10042000AA1ABA0A47CF1D821E82BBCFCF93DF9391
:1004300000D000D0CDB7DEB760910001709101010E
:1004400081E090E00E948C0428EE33E0629FC001BE
:10045000639F900D729F900D11249C01990F440B86
:10046000550B29833A834B835C83CA01B9010E94EF
:100470006F03462F572FBC01409308015093090189
:1004800060930A0170930B0140930401509305019E
:1004900060930601709307010F900F900F900F90DB
:1004A000DF91CF9108955058BB27AA270E946B0275
:1004B0000C94E5030E94D70338F00E94DE0320F07D
:1004C00039F49F3F19F426F40C94D4030EF4E0950C
:1004D000E7FB0C94CE03E92F0E94F60358F3BA17FA
:1004E000620773078407950720F079F4A6F50C944A
:1004F00018040EF4E0950B2EBA2FA02D0B01B901B4
:1005000090010C01CA01A0011124FF27591B99F089
:10051000593F50F4503E68F11A16F040A22F232F95
:10052000342F4427585FF3CF469537952795A795E5
:10053000F0405395C9F77EF41F16BA0B620B730B8C
:10054000840BBAF09150A1F0FF0FBB1F661F771FFD
:10055000881FC2F70EC0BA0F621F731F841F48F4B2
:10056000879577956795B795F7959E3F08F0B0CF3B
:100570009395880F08F09927EE0F97958795089522
:100580000E94AA0308F481E008950E94D9020C9405
:10059000E5030E94DE0358F00E94D70340F029F4DF
:1005A0005F3F29F00C94CE0351110C9419040C9464
:1005B000D4030E94F60368F39923B1F3552391F312
:1005C000951B550BBB27AA2762177307840738F0C2
:1005D0009F5F5F4F220F331F441FAA1FA9F335D01F
:1005E0000E2E3AF0E0E832D091505040E695001CD3
:1005F000CAF72BD0FE2F29D0660F771F881FBB1F8D
:10060000261737074807AB07B0E809F0BB0B802D6A
:10061000BF01FF2793585F4F3AF09E3F510578F096
:100620000C94CE030C9419045F3FE4F3983ED4F38A
:10063000869577956795B795F7959F5FC9F7880F6A
:10064000911D9695879597F90895E1E0660F771FBC
:10065000881FBB1F621773078407BA0720F0621B4D
:10066000730B840BBA0BEE1F88F7E09508950E9478
:100670003E036894B1110C94190408950E94FE037E
:1006800088F09F5798F0B92F9927B751B0F0E1F053
:10069000660F771F881F991F1AF0BA95C9F714C003
:1006A000B13091F00E941804B1E008950C94180440
:1006B000672F782F8827B85F39F0B93FCCF386953C
:1006C00077956795B395D9F73EF490958095709599
:1006D00061957F4F8F4F9F4F0895E89409C097FB16
:1006E0003EF490958095709561957F4F8F4F9F4F09
:1006F0009923A9F0F92F96E9BB279395F69587954D
:1007000077956795B795F111F8CFFAF4BB0F11F40F
:1007100060FF1BC06F5F7F4F8F4F9F4F16C08823B6
:1007200011F096E911C0772321F09EE8872F762FEC
:1007300005C0662371F096E8862F70E060E02AF02D
:100740009A95660F771F881FDAF7880F9695879519
:1007500097F90895990F0008550FAA0BE0E8FEEFEE
:1007600016161706E807F907C0F012161306E40775
:10077000F50798F0621B730B840B950B39F40A266E
:1007800061F0232B242B252B21F408950A2609F44C
:10079000A140A6958FEF811D811D089597F99F6750
:1007A00080E870E060E008959FEF80EC08950024F9
:1007B0000A941616170618060906089500240A94C6
:1007C00012161306140605060895092E0394000C4C
:1007D00011F4882352F0BB0F40F4BF2B11F460FFDB
:1007E00004C06F5F7F4F8F4F9F4F089557FD905804
:1007F000440F551F59F05F3F71F04795880F97FBE5
:10080000991F61F09F3F79F087950895121613069E
:100810001406551FF2CF4695F1DF08C016161706CD
:100820001806991FF1CF8695710561050894089502
:10083000E894BB2766277727CB0197F908950E9494
:1008400032040C94E5030E94D70338F00E94DE03C3
:1008500020F0952311F00C94CE030C94D4031124B2
:100860000C9419040E94F60370F3959FC1F3950F41
:1008700050E0551F629FF001729FBB27F00DB11D24
:10088000639FAA27F00DB11DAA1F649F6627B00DB4
:10089000A11D661F829F2227B00DA11D621F739F9D
:1008A000B00DA11D621F839FA00D611D221F749FAB
:1008B0003327A00D611D231F849F600D211D822FF2
:1008C000762F6A2F11249F5750409AF0F1F0882319
:1008D0004AF0EE0FFF1FBB1F661F771F881F915046
:1008E0005040A9F79E3F510580F00C94CE030C9424
:1008F00019045F3FE4F3983ED4F3869577956795A6
:10090000B795F795E7959F5FC1F7FE2B880F911D6F
:100910009695879597F9089597FB072E16F40094FE
:1009200007D077FD09D00E94A00407FC05D03EF453
:10093000909581959F4F0895709561957F4F08958B
:10094000AA1BBB1B51E107C0AA1FBB1FA617B707F5
:1009500010F0A61BB70B881F991F5A95A9F7809511
:100960009095BC01CD010895EE0FFF1F0590F49105
:08097000E02D0994F894FFCF7B
:0409780090013C00AE
:00000001FF
