:100000000C943E000C9448000C9448000C9448005A
:100010000C9448000C9448000C9448000C94480040
:100020000C9448000C9448000C9448000C94480030
:100030000C9448000C9448000C9448000C94480020
:100040000C9448000C9448000C9448000C94480010
:100050000C9448000C9448000C9448000C94480000
:100060000C9448000C9448000C9448000C944800F0
:100070000C9448000C9448000C94480011241FBEB6
:10008000CFEFD8E0DEBFCDBF0E9458000C94A00097
:100090000C94000082B192B18095892382B9119AA3
:1000A000089582B192B18095892382B9109A0895FA
:1000B00081B1836081B952980E944A00C1E0C13089
:1000C000B9F0C23069F1C111FACF82B192B1809515
:1000D000892382B94A9BF3CF8FE39CE90197F1F71B
:1000E00000C000000E9451004A99F4CFC1E0F2CF55
:1000F0000E944A004A9BE3CF8FE19EE40197F1F70B
:1001000000C000000E9451008FE39CE90197F1F7C5
:1001100000C000000E944A004A99ECCFC2E0EACF3A
:100120000E9451004A9BCBCF8FE39CE90197F1F7E6
:1001300000C000000E944A004A99F4CFC0E0F2CF0C
:04014000F894FFCF61
:00000001FF
