:100000000C943E000C9448000C9448000C9448005A
:100010000C9448000C9448000C9448000C94480040
:100020000C9448000C9448000C9448000C94480030
:100030000C9448000C9448000C9448000C94480020
:100040000C9448000C9448000C9448000C94480010
:100050000C9448000C9448000C9448000C94480000
:100060000C9448000C9448000C9448000C944800F0
:100070000C9448000C9448000C94480011241FBEB6
:10008000CFEFD8E0DEBFCDBF0E944A000C94A9009C
:100090000C94000081B1836081B95298119A81E07B
:1000A0008130D9F08230E9F18111FACF92B122B1D9
:1000B0009095922392B94A9BF3CFEFE3FCE93197F5
:1000C000F1F700C0000092B122B19095922392B94D
:1000D000109A4A99F0CF81E0EECF92B122B190957B
:1000E000922392B9119A4A9BDBCFEFE1FEE431975C
:1000F000F1F700C0000092B122B19095922392B91D
:10010000109AEFE3FCE93197F1F700C0000092B1DB
:1001100022B19095922392B9119A4A99E4CF82E044
:10012000E2CF92B122B19095922392B9109A4A9B54
:10013000B7CFEFE3FCE93197F1F700C0000092B1CF
:1001400022B19095922392B9119A4A99F0CF80E00A
:06015000EECFF894FFCF92
:00000001FF
