:100000000C943E000C9448000C9448000C9448005A
:100010000C9448000C9448000C9448000C94480040
:100020000C9448000C9448000C9448000C94480030
:100030000C9448000C9448000C9448000C94480020
:100040000C9448000C9448000C9448000C94480010
:100050000C9448000C9448000C9448000C94480000
:100060000C9448000C9448000C9448000C944800F0
:100070000C9448000C9448000C94480011241FBEB6
:10008000CFEFD8E0DEBFCDBF0E9458000C94A9008E
:100090000C94000082B192B18095892382B90895B1
:1000A0000E944A00119A08950E944A00109A0895E9
:1000B00081B1836081B952980E945000C1E0D0E0C4
:1000C000C130D105C1F0C230D10581F12097C1F70F
:1000D0000E944A004A9BF4CF8FE19EE40197F1F71A
:1000E00000C000000E9454004A99F4CF91E0C92F4B
:1000F00080E0D82FEFCF0E9450004A9BE1CF8FE1E4
:100100009EE40197F1F700C000000E9454008FE1C7
:100110009EE40197F1F700C000000E9450004A9948
:10012000ECCF92E0C92F80E0D82FE7CF0E94540097
:100130004A9BC6CF8FE19EE40197F1F700C0000013
:100140000E9450004A99F4CF90E0C92F80E0D82F48
:06015000EFCFF894FFCF91
:00000001FF
