:100000000C943E000C9448000C9448000C9448005A
:100010000C9448000C9448000C9448000C94480040
:100020000C9448000C9448000C9448000C94480030
:100030000C9448000C9448000C9448000C94480020
:100040000C9448000C9448000C9448000C94480010
:100050000C9448000C9448000C9448000C94480000
:100060000C9448000C9448000C9448000C944800F0
:100070000C9448000C9448000C94480011241FBEB6
:10008000CFEFD8E0DEBFCDBF0E944A000C948700BE
:100090000C94000081B1836081B9529882B192B111
:1000A0008095892382B980E0813009F1823011F195
:1000B0008111FACF82B192B18095892382B980E013
:1000C0004A9BF2CF2FE788E391E021508040904097
:1000D000E1F700C0000081E0F3CF2FE788E391E073
:1000E000215080409040E1F700C0000082E04A9932
:1000F000F4CFDACF4A9BFECF109A2FEF83ED90E337
:10010000215080409040E1F700C00000D3CFF89428
:02011000FFCF1F
:00000001FF
