:100000000C943E000C9448000C9448000C9448005A
:100010000C9448000C9448000C9448000C94480040
:100020000C9448000C9448000C9448000C94480030
:100030000C9448000C9448000C9448000C94480020
:100040000C9448000C9448000C9448000C94480010
:100050000C9448000C9448000C9448000C94480000
:100060000C9448000C9448000C9448000C944800F0
:100070000C9448000C9448000C94480011241FBEB6
:10008000CFEFD8E0DEBFCDBF0E944A000C949B00AA
:100090000C940000089A529882B192B180958923FD
:1000A00082B980E0813009F1823009F441C08111C8
:1000B000F9CF92B142B19095942392B94A9BF2CF75
:1000C0004FE758E381E0415050408040E1F700C0E5
:1000D000000081E0F3CF9FE728E341E0915020400A
:1000E0004040E1F700C0000082E04A99F4CF22E0EE
:1000F00030E0D8CF5FE798E341E051509040404076
:10010000E1F700C000002F5F3F4F2330310581F43D
:10011000109A5FEF83ED90E3515080409040E1F7FB
:1001200000C0000082B192B18095892382B980E03D
:0A0130004A99E0CFB7CFF894FFCF53
:00000001FF
