:100000000C943E000C9448000C9448000C9448005A
:100010000C9448000C9448000C9448000C94480040
:100020000C9448000C9448000C9448000C94480030
:100030000C9448000C9448000C9448000C94480020
:100040000C9448000C9448000C9448000C94480010
:100050000C9448000C9448000C9448000C94480000
:100060000C9448000C9448000C9448000C944800F0
:100070000C9448000C9448000C94480011241FBEB6
:10008000CFEFD8E0DEBFCDBF0E949A000C94BB003A
:100090000C9400004A9B05C04A990AC081E090E098
:1000A00008958FE39CE90197F1F700C00000F2CFBB
:1000B0008FE39CE90197F1F700C00000EDCF4A9B68
:1000C00005C04A990AC082E090E008958FE39CE958
:1000D0000197F1F700C00000F2CF8FE39CE9019790
:1000E000F1F700C00000EDCF4A9B07C082E090E02E
:1000F0004A990AC090E080E008958FE39CE9019757
:10010000F1F700C00000F0CFEFE3FCE93197F1F721
:1001100000C0000001968330910551F7109AFFEF5F
:1001200023ED30E3F15020403040E1F700C0000003
:100130001098DECF089A529882B192B180958923A7
:1001400082B930E020E02130310579F022303105EC
:1001500079F021153105B9F782B192B180958923E3
:1001600082B90E944A009C01EECF0E945F00FBCF43
:0A0170000E947400F8CFF894FFCF4E
:00000001FF
