:100000000C943E000C9448000C9448000C9448005A
:100010000C9448000C9448000C9448000C94480040
:100020000C9448000C9448000C9448000C94480030
:100030000C9448000C9448000C9448000C94480020
:100040000C9448000C9448000C9448000C94480010
:100050000C9448000C9448000C9448000C94480000
:100060000C9448000C9448000C9448000C944800F0
:100070000C9448000C9448000C94480011241FBEB6
:10008000CFEFD8E0DEBFCDBF0E944A000C949000B5
:100090000C94000081B1836081B9529882B192B111
:1000A0008095892382B980E0813001F18230A9F105
:1000B0008111FACF92B122B19095922392B94A9BC5
:1000C000F3CF2FE788E391E0215080409040E1F7A3
:1000D00000C0000081E0F3CF2FE788E391E02150DA
:1000E00080409040E1F700C0000082E04A99F4CFE0
:1000F000DBCF2FE788E391E0215080409040E1F78B
:1001000000C00000109A2FEF83ED90E32150804053
:100110009040E1F700C0000080E04A99EACFC4CFE8
:04012000F894FFCF81
:00000001FF
