:100000000C943E000C9448000C9448000C9448005A
:100010000C9448000C9448000C9448000C94480040
:100020000C9448000C9448000C9448000C94480030
:100030000C9448000C9448000C9448000C94480020
:100040000C9448000C9448000C9448000C94480010
:100050000C9448000C9448000C9448000C94480000
:100060000C9448000C9448000C9448000C944800F0
:100070000C9448000C9448000C94480011241FBEB6
:10008000CFEFD8E0DEBFCDBF0E9499000C94BD0039
:100090000C94000010927C0086E880937A0008950A
:1000A00010927A00089580917C00807E80937C007D
:1000B00080917C006770682B60937C0080917A004F
:1000C000806480937A0080917A0084FFFCCF8091D5
:1000D0007A00806180937A00209178008091790085
:1000E00090E0982F8827820F911D089585B195B1D2
:1000F0008095892385B908950E947600299A0895EC
:100100000E947600289A08958FE19EE40197F1F706
:1001100000C000000E9480008FE19EE40197F1F78B
:1001200000C000000C947C00089884B1836084B9FE
:1001300008950F92CDB7DEB70E9494008E010F5F35
:100140001F4FC8010E944A0060E0C8010E9453008E
:100150009695879596958795282F893118F40E9452
:100160008000F2CF8A518C3218F40E948400ECCFC8
:0E017000273450F30E947C00E7CFF894FFCFB5
:00000001FF
