:100000000C943E000C9448000C9448000C9448005A
:100010000C9448000C9448000C9448000C94480040
:100020000C9448000C9448000C9448000C94480030
:100030000C9448000C9448000C9448000C94480020
:100040000C9448000C9448000C9448000C94480010
:100050000C9448000C9448000C9448000C94480000
:100060000C9448000C9448000C9448000C944800F0
:100070000C9448000C9448000C94480011241FBEB6
:10008000CFEFD8E0DEBFCDBF0E944A000C947900CC
:100090000C940000089A52988EED93E044ED53E0E2
:1000A000109A30E020E028173907ACF022B132B1C5
:1000B0002095232322B930E020E0BA01681B790B98
:1000C000261737077CF00A978E3A2EE8920741F7F9
:1000D00090E080E008956AE16A95F1F700C02F5F33
:1000E0003F4FE1CFEAE1EA95F1F700C02F5F3F4FC4
:0600F000E7CFF894FFCFFA
:00000001FF
