:100000000C943E000C9453000C9453000C94530039
:100010000C9453000C9453000C9453000C94530014
:100020000C9453000C9453000C9453000C94530004
:100030000C9453000C9453000C9453000C945300F4
:100040000C9453000C9453000C9453000C945300E4
:100050000C9453000C9453000C9453000C945300D4
:100060000C9453000C9453000C9453000C945300C4
:100070000C9453000C9453000C94530011241FBE95
:10008000CFEFD8E0DEBFCDBF11E0A0E0B1E0E2ED00
:10009000F4E002C005900D92A033B107D9F70E9499
:1000A00016020C9467020C940000089580EA809375
:1000B00000011092B90080E28093B8000895FC011D
:1000C00080E88083CF010C945600982F9370891399
:1000D00005C0880F806A8093000108958FEF08950E
:1000E000FA0194EA24E89093BC008091BC0087FF59
:1000F000FCCF809100018093BB002093BC008091D5
:10010000BC0087FFFCCF8091B900883161F784EA99
:100110008093BC008091BC0087FFFCCF80910001E0
:100120008093BB0084E88093BC008091BC0087FF73
:10013000FCCF7093BB0084E88093BC008091BC002E
:1001400087FFFCCF6093BB0084E88093BC00809164
:10015000BC0087FFFCCF8091BC0087FFFCCF84EA06
:100160008093BC008091BC0087FFFCCF8091000190
:100170008F5F8093BB0084E88093BC008091BC00BB
:1001800087FFFCCF84E88093BC008091BC0087FF90
:10019000FCCF8091BB00808384E98093BC0080E029
:1001A000089594EA34E89093BC008091BC0087FFE6
:1001B000FCCF809100018093BB003093BC00809104
:1001C000BC0087FFFCCF8091B900883161F784EAD9
:1001D0008093BC008091BC0087FFFCCF8091000120
:1001E0008093BB0084E88093BC008091BC0087FFB3
:1001F000FCCF7093BB0084E88093BC008091BC006E
:1002000087FFFCCF6093BB0084E88093BC008091A3
:10021000BC0087FFFCCF84EA8093BC008091BC00C7
:1002200087FFFCCF809100018F5F8093BB0084E843
:100230008093BC008091BC0087FFFCCF84EC21112F
:1002400005C084E98093BC0080E00895213009F462
:1002500084E88093BC009091BC0097FFFCCFFA012A
:100260009091BB0091932150AF01E9CF94EA24E82B
:100270009093BC008091BC0087FFFCCF809100016F
:100280008093BB002093BC008091BC0087FFFCCF13
:100290008091B900883161F784EA8093BC00809135
:1002A000BC0087FFFCCF809100018093BB0084E8F5
:1002B0008093BC008091BC0087FFFCCF7093BB0093
:1002C00084E88093BC008091BC0087FFFCCF6093E2
:1002D000BB0084E88093BC008091BC0087FFFCCF0A
:1002E0004093BB0084E88093BC008091BC0087FFF2
:1002F000FCCF84E98093BC0080E00895FB01260FC9
:10030000372F311DDC018C918150990B862B9F2B4F
:100310002817390718F09C012F5F3F4F822F8E1B43
:1003200024EA34E82093BC009091BC0097FFFCCFF6
:10033000909100019093BB003093BC009091BC0061
:1003400097FFFCCF9091B900983161F794EA9093B0
:10035000BC009091BC0097FFFCCF9091000190935E
:10036000BB0094E89093BC009091BC0097FFFCCF39
:10037000F093BB0094E89093BC009091BC0097FF71
:10038000FCCFE093BB0094E89093BC009091BC003C
:1003900097FFFCCF982F24E8911104C094E9909323
:1003A000BC000895FA0131913093BB002093BC004A
:1003B0003091BC0037FFFCCF9150AF01EDCFDF9201
:1003C000EF92FF920F931F93CF93DF93D82ED92FE5
:1003D0007B018A01C22F2C2FA801B7018D2D9D2FE3
:1003E0000E947E01282F30E0E20EF31EC81B020F90
:1003F000131FC111F0CF80E0DF91CF911F910F91BA
:10040000FF90EF90DF90089581B1836081B90895E6
:1004100082B192B18095892382B908950E94080221
:10042000119A08950E940802109A0895CDB7DEB778
:10043000CD55D1090FB6F894DEBF0FBECDBF0E94D7
:1004400004028EE2E1E0F1E0DE019F9601900D9260
:100450008A95E1F78E01035A1F4FC8010E945F0081
:100460002DE2AE01415D5F4F70E060E0C8010E9487
:10047000DF018FE19EE40197F1F700C000002DE25B
:10048000AE014F5F5F4F70E060E0C8010E94D10095
:10049000FE013196DE019F96CE018E9631912D910F
:1004A000321779F00E940E02C8010E94550090E0B8
:1004B00080E0C35ADF4F0FB6F894DEBF0FBECDBF4A
:1004C0000895E817F90751F70E941202EDCFF8944A
:0204D000FFCF5C
:1004D200A02A502A4F2A4C2A592A542A452A432A0A
:1004E200482A4E2A492A512A552A452A202A4D2A83
:1004F2004F2A4E2A542A522A452A412A4C2A0000BF
:00000001FF
