:100000000C943E000C9473000C9450000C9450001F
:100010000C9450000C9450000C9450000C94500020
:100020000C9450000C9450000C9450000C94500010
:100030000C9450000C9450000C9450000C94500000
:100040000C9450000C9450000C9450000C945000F0
:100050000C9450000C9450000C9450000C945000E0
:100060000C9450000C9450000C9450000C945000D0
:100070000C9450000C9450000C94500011241FBE9E
:10008000CFEFD8E0DEBFCDBF21E0A0E0B1E001C0FE
:100090001D92A130B207E1F70E9495000C94B600C2
:1000A0000C94000082B192B18095892382B90895A1
:1000B0000E945200119A08950E945200109A0895C9
:1000C0004A9B08958FE59AEE0197F1F700C0000072
:1000D0000E945C008FE59AEE0197F1F700C00000E6
:1000E0000E945800EDCF8F938FB78F939F938FE52A
:1000F0009AEE0197F1F700C00000809100018F5F38
:1001000080930001E09A9F918F918FBF8F911895F6
:10011000F89481B1836081B95298E89AE9E6F0E0F9
:10012000808181608083789408950E9488000E9475
:100130005800809100018430B1F048F4823081F0A1
:100140008330A9F38130A9F70E946000F2CF853097
:1001500039F0863071F70E94580010920001E9CF03
:100160000E945C00E6CF0E945200E3CFF894FFCFDC
:00000001FF
