:100000000C943E000C945B000C945B000C945B0021
:100010000C945B000C945B000C945B000C945B00F4
:100020000C945B000C945B000C945B000C945B00E4
:100030000C945B000C945B000C945B000C945B00D4
:100040000C945B000C945B000C945B000C945B00C4
:100050000C945B000C945B000C945B000C945B00B4
:100060000C945B000C945B000C945B000C945B00A4
:100070000C945B000C945B000C945B0011241FBE7D
:10008000CFEFD8E0DEBFCDBF11E0A0E0B1E0ECE102
:10009000F1E002C005900D92A230B107D9F721E03E
:1000A000A2E0B1E001C01D92A330B207E1F70E94C7
:1000B00083000C948C000C94000090E090938900D5
:1000C0008093880070E070938B0060938A00E0E872
:1000D000F0E0808181688083E1E8F0E080818A60DF
:1000E0008083109282002FEF83ED90E321508040B7
:1000F0009040E1F700C0000008958AB180638AB99A
:100100008BB18BB908950E947D00609102018091AE
:0C01100000010E945D00FFCFF894FFCFBB
:02011C00FF00E2
:00000001FF
