:100000000C943E000C9448000C9448000C9448005A
:100010000C9448000C9448000C9448000C94480040
:100020000C9448000C9448000C9448000C94480030
:100030000C9448000C9448000C9448000C94480020
:100040000C9448000C9448000C9448000C94480010
:100050000C9448000C9448000C9448000C94480000
:100060000C9448000C9448000C9448000C944800F0
:100070000C9448000C9448000C94480011241FBEB6
:10008000CFEFD8E0DEBFCDBF0E944A000C946F00D6
:100090000C94000081B1836081B952984A9BFECFD5
:1000A000109A2FEF89E698E1215080409040E1F7C7
:1000B00000C0000082B192B18095892382B9119A63
:1000C0002FEF89E698E1215080409040E1F700C091
:1000D000000082B192B18095892382B9DFCFF89474
:0200E000FFCF50
:00000001FF
