:100000000C943E000C9448000C9448000C9448005A
:100010000C9448000C9448000C9448000C94480040
:100020000C9448000C9448000C9448000C94480030
:100030000C9448000C9448000C9448000C94480020
:100040000C9448000C9448000C9448000C94480010
:100050000C9448000C9448000C9448000C94480000
:100060000C9448000C9448000C9448000C944800F0
:100070000C9448000C9448000C94480011241FBEB6
:10008000CFEFD8E0DEBFCDBF0E944A000C946300E2
:100090000C94000083E081B981E082B9529828EB8A
:1000A0003BE0109A88EE93E042E04A95F1F700C0F9
:1000B0000197D1F782B192B18095892382B92150FD
:0A00C000310979F7ECCFF894FFCF77
:00000001FF
