:100000000C943E000C9453000C9453000C94530039
:100010000C9453000C9453000C9453000C94530014
:100020000C9453000C9453000C9453000C94530004
:100030000C9453000C9453000C9453000C945300F4
:100040000C9453000C9453000C9453000C945300E4
:100050000C9453000C9453000C9453000C945300D4
:100060000C9453000C9453000C9453000C945300C4
:100070000C9453000C9453000C94530011241FBE95
:10008000CFEFD8E0DEBFCDBF11E0A0E0B1E0EEE001
:10009000F5E002C005900D92A631B107D9F70E9494
:1000A00030020C9485020C940000089580EA80933D
:1000B00000011092B90080E28093B8000895FC011D
:1000C00080E88083CF010C945600982F9370891399
:1000D00005C0880F806A8093000108958FEF08950E
:1000E000FA0194EA24E89093BC008091BC0087FF59
:1000F000FCCF809100018093BB002093BC008091D5
:10010000BC0087FFFCCF8091B900883161F784EA99
:100110008093BC008091BC0087FFFCCF80910001E0
:100120008093BB0084E88093BC008091BC0087FF73
:10013000FCCF7093BB0084E88093BC008091BC002E
:1001400087FFFCCF6093BB0084E88093BC00809164
:10015000BC0087FFFCCF8091BC0087FFFCCF84EA06
:100160008093BC008091BC0087FFFCCF8091000190
:100170008F5F8093BB0084E88093BC008091BC00BB
:1001800087FFFCCF84E88093BC008091BC0087FF90
:10019000FCCF8091BB00808384E98093BC0080E029
:1001A000089594EA34E89093BC008091BC0087FFE6
:1001B000FCCF809100018093BB003093BC00809104
:1001C000BC0087FFFCCF8091B900883161F784EAD9
:1001D0008093BC008091BC0087FFFCCF8091000120
:1001E0008093BB0084E88093BC008091BC0087FFB3
:1001F000FCCF7093BB0084E88093BC008091BC006E
:1002000087FFFCCF6093BB0084E88093BC008091A3
:10021000BC0087FFFCCF84EA8093BC008091BC00C7
:1002200087FFFCCF809100018F5F8093BB0084E843
:100230008093BC008091BC0087FFFCCF84EC21112F
:1002400005C084E98093BC0080E00895213009F462
:1002500084E88093BC009091BC0097FFFCCFFA012A
:100260009091BB0091932150AF01E9CF94EA24E82B
:100270009093BC008091BC0087FFFCCF809100016F
:100280008093BB002093BC008091BC0087FFFCCF13
:100290008091B900883161F784EA8093BC00809135
:1002A000BC0087FFFCCF809100018093BB0084E8F5
:1002B0008093BC008091BC0087FFFCCF7093BB0093
:1002C00084E88093BC008091BC0087FFFCCF6093E2
:1002D000BB0084E88093BC008091BC0087FFFCCF0A
:1002E0004093BB0084E88093BC008091BC0087FFF2
:1002F000FCCF84E98093BC0080E00895FB01260FC9
:10030000372F311DDC018C918150990B862B9F2B4F
:100310002817390718F09C012F5F3F4F822F8E1B43
:1003200024EA34E82093BC009091BC0097FFFCCFF6
:10033000909100019093BB003093BC009091BC0061
:1003400097FFFCCF9091B900983161F794EA9093B0
:10035000BC009091BC0097FFFCCF9091000190935E
:10036000BB0094E89093BC009091BC0097FFFCCF39
:10037000F093BB0094E89093BC009091BC0097FF71
:10038000FCCFE093BB0094E89093BC009091BC003C
:1003900097FFFCCF982F24E8911104C094E9909323
:1003A000BC000895FA0131913093BB002093BC004A
:1003B0003091BC0037FFFCCF9150AF01EDCFDF9201
:1003C000EF92FF920F931F93CF93DF93D82ED92FE5
:1003D0007B018A01C22F2C2FA801B7018D2D9D2FE3
:1003E0000E947E01282F30E0E20EF31EC81B020F90
:1003F000131FC111F0CF80E0DF91CF911F910F91BA
:10040000FF90EF90DF90089581B1836081B90895E6
:1004100082B192B18095892382B908950E94080221
:10042000119A08950E940802109A08951092C5002A
:100430008FEC8093C4001092C00088E18093C100CB
:1004400086E08093C20008959091C00095FFFCCF94
:100450009091C1009E7F9093C1008093C600089543
:10046000CDB7DEB7AB970FB6F894DEBF0FBECDBFEA
:100470000E9404020E94160285E1E1E0F1E0DE0143
:10048000569601900D928A95E1F78E01055D1F4FFA
:10049000C8010E945F0024E1AE014A5E5F4F70E038
:1004A00060E0C8010E94DF018FE19EE40197F1F74F
:1004B00000C0000024E1FE0131966F01AF0170E041
:1004C00060E0C8010E94D10084E6E82EF12C5801BA
:1004D0004E01F5E18F0E911C8601F80181918F018B
:1004E0000E94240208151905C1F7F1E0EF1AF1087E
:1004F00099F7C5010E94550090E080E0AB960FB6D9
:0E050000F894DEBF0FBECDBF0895F894FFCF74
:10050E00A068617070794269727468646179207450
:06051E006F206D650A006C
:00000001FF
