:100000000C943E000C9466000C9450000C9450002C
:100010000C9450000C9450000C9450000C94500020
:100020000C9450000C9450000C9450000C94500010
:100030000C9450000C9460000C9450000C945000F0
:100040000C9450000C9450000C9450000C945000F0
:100050000C9450000C9450000C9450000C945000E0
:100060000C9450000C9450000C9450000C945000D0
:100070000C9450000C9450000C94500011241FBE9E
:10008000CFEFD8E0DEBFCDBF21E0A0E0B1E001C0FE
:100090001D92A230B207E1F70E949C000C94CF00A1
:1000A0000C94000082B192B18095892382B90895A1
:1000B0000E945200119A08950E945200109A0895C9
:1000C0008F9381E0809301018F9118958F938FB763
:1000D0008F939F9381E0809300018FE59AEE0197C3
:1000E000F1F700C000009F918F918FBF8F911895FD
:1000F0001092010110928500109284009093890063
:100100008093880010928000E1E8F0E080818560B3
:1001100080831092820082E080936F000895F894AB
:1001200081B1836081B95298E89AE9E6F0E0808174
:1001300083608083789408950E948F00C2E3D0E0AA
:100140000E9458002FEF80E792E0215080409040BD
:10015000E1F700C000000E9452002FEF80E792E01C
:10016000215080409040E1F700C00000219741F706
:1001700085E89EE10E94780080910101811104C010
:10018000809100018823C1F3F894809101018130AE
:1001900019F40E945800FFCF0E945C00FCCFF89435
:0201A000FFCF8F
:00000001FF
